{
  "address": "0x3991C9323e492aa9d3BC6E8236e0616877F36363",
  "abi": [
    {
      "inputs": [
        {
          "internalType": "address",
          "name": "priceFeedAddress",
          "type": "address"
        }
      ],
      "stateMutability": "nonpayable",
      "type": "constructor"
    },
    {
      "inputs": [],
      "name": "FundMe__NotOwner",
      "type": "error"
    },
    {
      "stateMutability": "payable",
      "type": "fallback"
    },
    {
      "inputs": [],
      "name": "MINIMUM_USD",
      "outputs": [
        {
          "internalType": "uint256",
          "name": "",
          "type": "uint256"
        }
      ],
      "stateMutability": "view",
      "type": "function"
    },
    {
      "inputs": [],
      "name": "cheaperWithdraw",
      "outputs": [],
      "stateMutability": "payable",
      "type": "function"
    },
    {
      "inputs": [],
      "name": "fund",
      "outputs": [],
      "stateMutability": "payable",
      "type": "function"
    },
    {
      "inputs": [
        {
          "internalType": "address",
          "name": "funder",
          "type": "address"
        }
      ],
      "name": "getAddressToAmountFunded",
      "outputs": [
        {
          "internalType": "uint256",
          "name": "",
          "type": "uint256"
        }
      ],
      "stateMutability": "view",
      "type": "function"
    },
    {
      "inputs": [
        {
          "internalType": "uint256",
          "name": "index",
          "type": "uint256"
        }
      ],
      "name": "getFunder",
      "outputs": [
        {
          "internalType": "address",
          "name": "",
          "type": "address"
        }
      ],
      "stateMutability": "view",
      "type": "function"
    },
    {
      "inputs": [],
      "name": "getOwner",
      "outputs": [
        {
          "internalType": "address",
          "name": "",
          "type": "address"
        }
      ],
      "stateMutability": "view",
      "type": "function"
    },
    {
      "inputs": [],
      "name": "getPriceFeed",
      "outputs": [
        {
          "internalType": "contract AggregatorV3Interface",
          "name": "",
          "type": "address"
        }
      ],
      "stateMutability": "view",
      "type": "function"
    },
    {
      "inputs": [],
      "name": "s_priceFeed",
      "outputs": [
        {
          "internalType": "contract AggregatorV3Interface",
          "name": "",
          "type": "address"
        }
      ],
      "stateMutability": "view",
      "type": "function"
    },
    {
      "inputs": [],
      "name": "withdraw",
      "outputs": [],
      "stateMutability": "payable",
      "type": "function"
    },
    {
      "stateMutability": "payable",
      "type": "receive"
    }
  ],
  "transactionHash": "0x36f8c71d27abe26b75ddcf1dec604a00fd052b503a2120e72ae13e71b53d5e73",
  "args": [
    "0x8A753747A1Fa494EC906cE90E9f37563A8AF630e"
  ],
  "numDeployments": 4,
  "solcInputHash": "039eb065fb6236c79c5b6f978b632993",
  "bytecode": "0x60a06040523480156200001157600080fd5b50604051620013233803806200132383398181016040528101906200003791906200011d565b3373ffffffffffffffffffffffffffffffffffffffff1660808173ffffffffffffffffffffffffffffffffffffffff168152505080600260006101000a81548173ffffffffffffffffffffffffffffffffffffffff021916908373ffffffffffffffffffffffffffffffffffffffff160217905550506200014f565b600080fd5b600073ffffffffffffffffffffffffffffffffffffffff82169050919050565b6000620000e582620000b8565b9050919050565b620000f781620000d8565b81146200010357600080fd5b50565b6000815190506200011781620000ec565b92915050565b600060208284031215620001365762000135620000b3565b5b6000620001468482850162000106565b91505092915050565b6080516111a36200018060003960008181610391015281816105e001528181610630015261082601526111a36000f3fe60806040526004361061008a5760003560e01c8063893d20e811610059578063893d20e8146101405780639e87a5cd1461016b578063b60d428814610196578063be2693f0146101a0578063d7b4750c146101aa57610099565b80630343fb25146100a35780630ec3b027146100e05780633ccfd60b1461010b5780636b69a5921461011557610099565b36610099576100976101e7565b005b6100a16101e7565b005b3480156100af57600080fd5b506100ca60048036038101906100c59190610adb565b610321565b6040516100d79190610b21565b60405180910390f35b3480156100ec57600080fd5b506100f5610369565b6040516101029190610b9b565b60405180910390f35b61011361038f565b005b34801561012157600080fd5b5061012a6105cf565b6040516101379190610b21565b60405180910390f35b34801561014c57600080fd5b506101556105dc565b6040516101629190610bc5565b60405180910390f35b34801561017757600080fd5b50610180610604565b60405161018d9190610b9b565b60405180910390f35b61019e6101e7565b005b6101a861062e565b005b3480156101b657600080fd5b506101d160048036038101906101cc9190610c0c565b6108bc565b6040516101de9190610bc5565b60405180910390f35b6802b5e3af16b1880000610226600260009054906101000a900473ffffffffffffffffffffffffffffffffffffffff163461090490919063ffffffff16565b1015610267576040517f08c379a000000000000000000000000000000000000000000000000000000000815260040161025e90610c96565b60405180910390fd5b346000803373ffffffffffffffffffffffffffffffffffffffff1673ffffffffffffffffffffffffffffffffffffffff16815260200190815260200160002060008282546102b59190610ce5565b925050819055506001339080600181540180825580915050600190039060005260206000200160009091909190916101000a81548173ffffffffffffffffffffffffffffffffffffffff021916908373ffffffffffffffffffffffffffffffffffffffff160217905550565b60008060008373ffffffffffffffffffffffffffffffffffffffff1673ffffffffffffffffffffffffffffffffffffffff168152602001908152602001600020549050919050565b600260009054906101000a900473ffffffffffffffffffffffffffffffffffffffff1681565b7f000000000000000000000000000000000000000000000000000000000000000073ffffffffffffffffffffffffffffffffffffffff163373ffffffffffffffffffffffffffffffffffffffff1614610414576040517f579610db00000000000000000000000000000000000000000000000000000000815260040160405180910390fd5b60005b6001805490508110156104bf5760006001828154811061043a57610439610d3b565b5b9060005260206000200160009054906101000a900473ffffffffffffffffffffffffffffffffffffffff16905060008060008373ffffffffffffffffffffffffffffffffffffffff1673ffffffffffffffffffffffffffffffffffffffff168152602001908152602001600020819055505080806104b790610d6a565b915050610417565b50600067ffffffffffffffff8111156104db576104da610db3565b5b6040519080825280602002602001820160405280156105095781602001602082028036833780820191505090505b506001908051906020019061051f9291906109d1565b5060003373ffffffffffffffffffffffffffffffffffffffff164760405161054690610e13565b60006040518083038185875af1925050503d8060008114610583576040519150601f19603f3d011682016040523d82523d6000602084013e610588565b606091505b50509050806105cc576040517f08c379a00000000000000000000000000000000000000000000000000000000081526004016105c390610e74565b60405180910390fd5b50565b6802b5e3af16b188000081565b60007f0000000000000000000000000000000000000000000000000000000000000000905090565b6000600260009054906101000a900473ffffffffffffffffffffffffffffffffffffffff16905090565b7f000000000000000000000000000000000000000000000000000000000000000073ffffffffffffffffffffffffffffffffffffffff163373ffffffffffffffffffffffffffffffffffffffff16146106b3576040517f579610db00000000000000000000000000000000000000000000000000000000815260040160405180910390fd5b6000600180548060200260200160405190810160405280929190818152602001828054801561073757602002820191906000526020600020905b8160009054906101000a900473ffffffffffffffffffffffffffffffffffffffff1673ffffffffffffffffffffffffffffffffffffffff16815260200190600101908083116106ed575b5050505050905060005b81518110156107c157600082828151811061075f5761075e610d3b565b5b6020026020010151905060008060008373ffffffffffffffffffffffffffffffffffffffff1673ffffffffffffffffffffffffffffffffffffffff168152602001908152602001600020819055505080806107b990610d6a565b915050610741565b50600067ffffffffffffffff8111156107dd576107dc610db3565b5b60405190808252806020026020018201604052801561080b5781602001602082028036833780820191505090505b50600190805190602001906108219291906109d1565b5060007f000000000000000000000000000000000000000000000000000000000000000073ffffffffffffffffffffffffffffffffffffffff164760405161086890610e13565b60006040518083038185875af1925050503d80600081146108a5576040519150601f19603f3d011682016040523d82523d6000602084013e6108aa565b606091505b50509050806108b857600080fd5b5050565b6000600182815481106108d2576108d1610d3b565b5b9060005260206000200160009054906101000a900473ffffffffffffffffffffffffffffffffffffffff169050919050565b60008061091083610940565b90506000670de0b6b3a764000085836109299190610e94565b6109339190610f1d565b9050809250505092915050565b6000808273ffffffffffffffffffffffffffffffffffffffff1663feaf968c6040518163ffffffff1660e01b815260040160a060405180830381865afa15801561098e573d6000803e3d6000fd5b505050506040513d601f19601f820116820180604052508101906109b29190610fdb565b5050509150506402540be400816109c99190611056565b915050919050565b828054828255906000526020600020908101928215610a4a579160200282015b82811115610a495782518260006101000a81548173ffffffffffffffffffffffffffffffffffffffff021916908373ffffffffffffffffffffffffffffffffffffffff160217905550916020019190600101906109f1565b5b509050610a579190610a5b565b5090565b5b80821115610a74576000816000905550600101610a5c565b5090565b600080fd5b600073ffffffffffffffffffffffffffffffffffffffff82169050919050565b6000610aa882610a7d565b9050919050565b610ab881610a9d565b8114610ac357600080fd5b50565b600081359050610ad581610aaf565b92915050565b600060208284031215610af157610af0610a78565b5b6000610aff84828501610ac6565b91505092915050565b6000819050919050565b610b1b81610b08565b82525050565b6000602082019050610b366000830184610b12565b92915050565b6000819050919050565b6000610b61610b5c610b5784610a7d565b610b3c565b610a7d565b9050919050565b6000610b7382610b46565b9050919050565b6000610b8582610b68565b9050919050565b610b9581610b7a565b82525050565b6000602082019050610bb06000830184610b8c565b92915050565b610bbf81610a9d565b82525050565b6000602082019050610bda6000830184610bb6565b92915050565b610be981610b08565b8114610bf457600080fd5b50565b600081359050610c0681610be0565b92915050565b600060208284031215610c2257610c21610a78565b5b6000610c3084828501610bf7565b91505092915050565b600082825260208201905092915050565b7f596f75206e65656420746f207370656e64206d6f726520455448210000000000600082015250565b6000610c80601b83610c39565b9150610c8b82610c4a565b602082019050919050565b60006020820190508181036000830152610caf81610c73565b9050919050565b7f4e487b7100000000000000000000000000000000000000000000000000000000600052601160045260246000fd5b6000610cf082610b08565b9150610cfb83610b08565b9250827fffffffffffffffffffffffffffffffffffffffffffffffffffffffffffffffff03821115610d3057610d2f610cb6565b5b828201905092915050565b7f4e487b7100000000000000000000000000000000000000000000000000000000600052603260045260246000fd5b6000610d7582610b08565b91507fffffffffffffffffffffffffffffffffffffffffffffffffffffffffffffffff821415610da857610da7610cb6565b5b600182019050919050565b7f4e487b7100000000000000000000000000000000000000000000000000000000600052604160045260246000fd5b600081905092915050565b50565b6000610dfd600083610de2565b9150610e0882610ded565b600082019050919050565b6000610e1e82610df0565b9150819050919050565b7f43616c6c206661696c6564000000000000000000000000000000000000000000600082015250565b6000610e5e600b83610c39565b9150610e6982610e28565b602082019050919050565b60006020820190508181036000830152610e8d81610e51565b9050919050565b6000610e9f82610b08565b9150610eaa83610b08565b9250817fffffffffffffffffffffffffffffffffffffffffffffffffffffffffffffffff0483118215151615610ee357610ee2610cb6565b5b828202905092915050565b7f4e487b7100000000000000000000000000000000000000000000000000000000600052601260045260246000fd5b6000610f2882610b08565b9150610f3383610b08565b925082610f4357610f42610eee565b5b828204905092915050565b600069ffffffffffffffffffff82169050919050565b610f6d81610f4e565b8114610f7857600080fd5b50565b600081519050610f8a81610f64565b92915050565b6000819050919050565b610fa381610f90565b8114610fae57600080fd5b50565b600081519050610fc081610f9a565b92915050565b600081519050610fd581610be0565b92915050565b600080600080600060a08688031215610ff757610ff6610a78565b5b600061100588828901610f7b565b955050602061101688828901610fb1565b945050604061102788828901610fc6565b935050606061103888828901610fc6565b925050608061104988828901610f7b565b9150509295509295909350565b600061106182610f90565b915061106c83610f90565b9250827f7fffffffffffffffffffffffffffffffffffffffffffffffffffffffffffffff04821160008413600084131616156110ab576110aa610cb6565b5b817f800000000000000000000000000000000000000000000000000000000000000005831260008412600084131616156110e8576110e7610cb6565b5b827f8000000000000000000000000000000000000000000000000000000000000000058212600084136000841216161561112557611124610cb6565b5b827f7fffffffffffffffffffffffffffffffffffffffffffffffffffffffffffffff058212600084126000841216161561116257611161610cb6565b5b82820290509291505056fea264697066735822122058e8f9113d752a08121ceecf97355d049762a0eb274e7ac239e8561c59a90c1564736f6c634300080c0033",
  "devdoc": {
    "author": "Lionel",
    "details": "This implements  proce feeds as our library",
    "kind": "dev",
    "methods": {
      "fund()": {
        "details": "This implements  proce feeds as our library"
      }
    },
    "title": "A contract for crowd fundind",
    "version": 1
  },
  "userdoc": {
    "kind": "user",
    "methods": {
      "fund()": {
        "notice": "this contract is to demo a sample funding contract"
      }
    },
    "notice": "this contract is to demo a sample funding contract",
    "version": 1
  },
  "storageLayout": {
    "storage": [
      {
        "astId": 60,
        "contract": "contracts/FundMe.sol:FundMe",
        "label": "s_addressToAmountFunded",
        "offset": 0,
        "slot": "0",
        "type": "t_mapping(t_address,t_uint256)"
      },
      {
        "astId": 63,
        "contract": "contracts/FundMe.sol:FundMe",
        "label": "s_funders",
        "offset": 0,
        "slot": "1",
        "type": "t_array(t_address)dyn_storage"
      },
      {
        "astId": 75,
        "contract": "contracts/FundMe.sol:FundMe",
        "label": "s_priceFeed",
        "offset": 0,
        "slot": "2",
        "type": "t_contract(AggregatorV3Interface)45"
      }
    ],
    "types": {
      "t_address": {
        "encoding": "inplace",
        "label": "address",
        "numberOfBytes": "20"
      },
      "t_array(t_address)dyn_storage": {
        "base": "t_address",
        "encoding": "dynamic_array",
        "label": "address[]",
        "numberOfBytes": "32"
      },
      "t_contract(AggregatorV3Interface)45": {
        "encoding": "inplace",
        "label": "contract AggregatorV3Interface",
        "numberOfBytes": "20"
      },
      "t_mapping(t_address,t_uint256)": {
        "encoding": "mapping",
        "key": "t_address",
        "label": "mapping(address => uint256)",
        "numberOfBytes": "32",
        "value": "t_uint256"
      },
      "t_uint256": {
        "encoding": "inplace",
        "label": "uint256",
        "numberOfBytes": "32"
      }
    }
  }
}